{
    "_format": "hh-sol-artifact-1",
    "contractName": "Staking",
    "sourceName": "contracts/Staking.sol",
    "abi": [
        {
            "inputs": [
                {
                    "internalType": "uint256",
                    "name": "_stakingPeriod",
                    "type": "uint256"
                }
            ],
            "stateMutability": "payable",
            "type": "constructor"
        },
        {
            "inputs": [],
            "name": "calculateRewards",
            "outputs": [
                {
                    "internalType": "uint256",
                    "name": "",
                    "type": "uint256"
                }
            ],
            "stateMutability": "view",
            "type": "function"
        },
        {
            "inputs": [],
            "name": "distributeRewards",
            "outputs": [],
            "stateMutability": "nonpayable",
            "type": "function"
        },
        {
            "inputs": [],
            "name": "getBalance",
            "outputs": [
                {
                    "internalType": "uint256",
                    "name": "",
                    "type": "uint256"
                }
            ],
            "stateMutability": "view",
            "type": "function"
        },
        {
            "inputs": [],
            "name": "getStakedBalance",
            "outputs": [
                {
                    "internalType": "uint256",
                    "name": "",
                    "type": "uint256"
                }
            ],
            "stateMutability": "view",
            "type": "function"
        },
        {
            "inputs": [],
            "name": "minValue",
            "outputs": [
                {
                    "internalType": "uint256",
                    "name": "",
                    "type": "uint256"
                }
            ],
            "stateMutability": "view",
            "type": "function"
        },
        {
            "inputs": [],
            "name": "owner",
            "outputs": [
                {
                    "internalType": "address",
                    "name": "",
                    "type": "address"
                }
            ],
            "stateMutability": "view",
            "type": "function"
        },
        {
            "inputs": [],
            "name": "stake",
            "outputs": [],
            "stateMutability": "payable",
            "type": "function"
        },
        {
            "inputs": [
                {
                    "internalType": "address",
                    "name": "",
                    "type": "address"
                }
            ],
            "name": "stakedBalances",
            "outputs": [
                {
                    "internalType": "uint256",
                    "name": "",
                    "type": "uint256"
                }
            ],
            "stateMutability": "view",
            "type": "function"
        },
        {
            "inputs": [],
            "name": "stakingPeriod",
            "outputs": [
                {
                    "internalType": "uint256",
                    "name": "",
                    "type": "uint256"
                }
            ],
            "stateMutability": "view",
            "type": "function"
        },
        {
            "inputs": [
                {
                    "internalType": "address",
                    "name": "",
                    "type": "address"
                }
            ],
            "name": "stakingStartTimes",
            "outputs": [
                {
                    "internalType": "uint256",
                    "name": "",
                    "type": "uint256"
                }
            ],
            "stateMutability": "view",
            "type": "function"
        },
        {
            "inputs": [],
            "name": "timeLeft",
            "outputs": [
                {
                    "internalType": "uint256",
                    "name": "",
                    "type": "uint256"
                }
            ],
            "stateMutability": "view",
            "type": "function"
        },
        {
            "inputs": [],
            "name": "totalRewards",
            "outputs": [
                {
                    "internalType": "uint256",
                    "name": "",
                    "type": "uint256"
                }
            ],
            "stateMutability": "view",
            "type": "function"
        },
        {
            "inputs": [],
            "name": "totalStakers",
            "outputs": [
                {
                    "internalType": "uint256",
                    "name": "",
                    "type": "uint256"
                }
            ],
            "stateMutability": "view",
            "type": "function"
        },
        {
            "inputs": [
                {
                    "internalType": "address",
                    "name": "",
                    "type": "address"
                }
            ],
            "name": "userBalances",
            "outputs": [
                {
                    "internalType": "uint256",
                    "name": "",
                    "type": "uint256"
                }
            ],
            "stateMutability": "view",
            "type": "function"
        },
        {
            "inputs": [],
            "name": "withdraw",
            "outputs": [],
            "stateMutability": "nonpayable",
            "type": "function"
        }
    ],
    "bytecode": "0x60806040526611c37937e08000600355604051611113380380611113833981810160405281019061003091906100bf565b336000806101000a81548173ffffffffffffffffffffffffffffffffffffffff021916908373ffffffffffffffffffffffffffffffffffffffff1602179055508060018190555034600281905550506100ec565b600080fd5b6000819050919050565b61009c81610089565b81146100a757600080fd5b50565b6000815190506100b981610093565b92915050565b6000602082840312156100d5576100d4610084565b5b60006100e3848285016100aa565b91505092915050565b611018806100fb6000396000f3fe6080604052600436106100e85760003560e01c80633e50de301161008a5780638da5cb5b116100595780638da5cb5b146102a1578063963e63c7146102cc5780639dedb97d146102f7578063c03d5b4714610334576100e8565b80633e50de30146102095780636f4a2cd014610234578063769658671461024b5780638698903814610276576100e8565b80631460fa87116100c65780631460fa871461016e57806326224c64146101ab5780633a4b66f1146101e85780633ccfd60b146101f2576100e8565b80630e15561a146100ed57806312065fe0146101185780631300a6d114610143575b600080fd5b3480156100f957600080fd5b5061010261035f565b60405161010f9190610b36565b60405180910390f35b34801561012457600080fd5b5061012d610365565b60405161013a9190610b36565b60405180910390f35b34801561014f57600080fd5b50610158610384565b6040516101659190610b36565b60405180910390f35b34801561017a57600080fd5b5061019560048036038101906101909190610bb4565b610443565b6040516101a29190610b36565b60405180910390f35b3480156101b757600080fd5b506101d260048036038101906101cd9190610bb4565b61045b565b6040516101df9190610b36565b60405180910390f35b6101f0610473565b005b3480156101fe57600080fd5b506102076106ff565b005b34801561021557600080fd5b5061021e61093a565b60405161022b9190610b36565b60405180910390f35b34801561024057600080fd5b506102496109ee565b005b34801561025757600080fd5b50610260610a88565b60405161026d9190610b36565b60405180910390f35b34801561028257600080fd5b5061028b610acf565b6040516102989190610b36565b60405180910390f35b3480156102ad57600080fd5b506102b6610ad5565b6040516102c39190610bf0565b60405180910390f35b3480156102d857600080fd5b506102e1610af9565b6040516102ee9190610b36565b60405180910390f35b34801561030357600080fd5b5061031e60048036038101906103199190610bb4565b610aff565b60405161032b9190610b36565b60405180910390f35b34801561034057600080fd5b50610349610b17565b6040516103569190610b36565b60405180910390f35b60025481565b60003373ffffffffffffffffffffffffffffffffffffffff1631905090565b600062015180600760003373ffffffffffffffffffffffffffffffffffffffff1673ffffffffffffffffffffffffffffffffffffffff168152602001908152602001600020546103d49190610c3a565b4211156103e45760009050610440565b4262015180600760003373ffffffffffffffffffffffffffffffffffffffff1673ffffffffffffffffffffffffffffffffffffffff168152602001908152602001600020546104339190610c3a565b61043d9190610c6e565b90505b90565b60066020528060005260406000206000915090505481565b60056020528060005260406000206000915090505481565b6003543410156104b8576040517f08c379a00000000000000000000000000000000000000000000000000000000081526004016104af90610cff565b60405180910390fd5b343373ffffffffffffffffffffffffffffffffffffffff16311015610512576040517f08c379a000000000000000000000000000000000000000000000000000000000815260040161050990610d6b565b60405180910390fd5b6000600660003373ffffffffffffffffffffffffffffffffffffffff1673ffffffffffffffffffffffffffffffffffffffff1681526020019081526020016000205414610594576040517f08c379a000000000000000000000000000000000000000000000000000000000815260040161058b90610dd7565b60405180910390fd5b3373ffffffffffffffffffffffffffffffffffffffff1631600560003373ffffffffffffffffffffffffffffffffffffffff1673ffffffffffffffffffffffffffffffffffffffff16815260200190815260200160002081905550600034905080600560003373ffffffffffffffffffffffffffffffffffffffff1673ffffffffffffffffffffffffffffffffffffffff16815260200190815260200160002060008282546106439190610c6e565b9250508190555080600660003373ffffffffffffffffffffffffffffffffffffffff1673ffffffffffffffffffffffffffffffffffffffff16815260200190815260200160002060008282546106999190610c3a565b9250508190555042600760003373ffffffffffffffffffffffffffffffffffffffff1673ffffffffffffffffffffffffffffffffffffffff16815260200190815260200160002081905550600460008154809291906106f790610df7565b919050555050565b600354600660003373ffffffffffffffffffffffffffffffffffffffff1673ffffffffffffffffffffffffffffffffffffffff168152602001908152602001600020541015610783576040517f08c379a000000000000000000000000000000000000000000000000000000000815260040161077a90610e8b565b60405180910390fd5b600061078d61093a565b9050600081600660003373ffffffffffffffffffffffffffffffffffffffff1673ffffffffffffffffffffffffffffffffffffffff168152602001908152602001600020546107dc9190610c3a565b905080600560003373ffffffffffffffffffffffffffffffffffffffff1673ffffffffffffffffffffffffffffffffffffffff168152602001908152602001600020600082825461082d9190610c3a565b925050819055506000600660003373ffffffffffffffffffffffffffffffffffffffff1673ffffffffffffffffffffffffffffffffffffffff168152602001908152602001600020819055506000600760003373ffffffffffffffffffffffffffffffffffffffff1673ffffffffffffffffffffffffffffffffffffffff1681526020019081526020016000208190555081600260008282546108d09190610c6e565b92505081905550600460008154809291906108ea90610eab565b91905055503373ffffffffffffffffffffffffffffffffffffffff166108fc829081150290604051600060405180830381858888f19350505050158015610935573d6000803e3d6000fd5b505050565b600080600760003373ffffffffffffffffffffffffffffffffffffffff1673ffffffffffffffffffffffffffffffffffffffff16815260200190815260200160002054426109889190610c6e565b9050600060015482600660003373ffffffffffffffffffffffffffffffffffffffff1673ffffffffffffffffffffffffffffffffffffffff168152602001908152602001600020546109da9190610ed4565b6109e49190610f45565b9050809250505090565b62015180600760003373ffffffffffffffffffffffffffffffffffffffff1673ffffffffffffffffffffffffffffffffffffffff16815260200190815260200160002054610a3c9190610c3a565b421015610a7e576040517f08c379a0000000000000000000000000000000000000000000000000000000008152600401610a7590610fc2565b60405180910390fd5b610a866106ff565b565b6000600660003373ffffffffffffffffffffffffffffffffffffffff1673ffffffffffffffffffffffffffffffffffffffff16815260200190815260200160002054905090565b60045481565b60008054906101000a900473ffffffffffffffffffffffffffffffffffffffff1681565b60035481565b60076020528060005260406000206000915090505481565b60015481565b6000819050919050565b610b3081610b1d565b82525050565b6000602082019050610b4b6000830184610b27565b92915050565b600080fd5b600073ffffffffffffffffffffffffffffffffffffffff82169050919050565b6000610b8182610b56565b9050919050565b610b9181610b76565b8114610b9c57600080fd5b50565b600081359050610bae81610b88565b92915050565b600060208284031215610bca57610bc9610b51565b5b6000610bd884828501610b9f565b91505092915050565b610bea81610b76565b82525050565b6000602082019050610c056000830184610be1565b92915050565b7f4e487b7100000000000000000000000000000000000000000000000000000000600052601160045260246000fd5b6000610c4582610b1d565b9150610c5083610b1d565b9250828201905080821115610c6857610c67610c0b565b5b92915050565b6000610c7982610b1d565b9150610c8483610b1d565b9250828203905081811115610c9c57610c9b610c0b565b5b92915050565b600082825260208201905092915050565b7f4d7573742062652067726561746572207468616e20302e303035206574686572600082015250565b6000610ce9602083610ca2565b9150610cf482610cb3565b602082019050919050565b60006020820190508181036000830152610d1881610cdc565b9050919050565b7f496e73756666696369656e742062616c616e6365000000000000000000000000600082015250565b6000610d55601483610ca2565b9150610d6082610d1f565b602082019050919050565b60006020820190508181036000830152610d8481610d48565b9050919050565b7f596f7520616c72656164792068617665207374616b6500000000000000000000600082015250565b6000610dc1601683610ca2565b9150610dcc82610d8b565b602082019050919050565b60006020820190508181036000830152610df081610db4565b9050919050565b6000610e0282610b1d565b91507fffffffffffffffffffffffffffffffffffffffffffffffffffffffffffffffff8203610e3457610e33610c0b565b5b600182019050919050565b7f596f7520646f6e7420686176652061207374616b652062616c616e6365000000600082015250565b6000610e75601d83610ca2565b9150610e8082610e3f565b602082019050919050565b60006020820190508181036000830152610ea481610e68565b9050919050565b6000610eb682610b1d565b915060008203610ec957610ec8610c0b565b5b600182039050919050565b6000610edf82610b1d565b9150610eea83610b1d565b9250828202610ef881610b1d565b91508282048414831517610f0f57610f0e610c0b565b5b5092915050565b7f4e487b7100000000000000000000000000000000000000000000000000000000600052601260045260246000fd5b6000610f5082610b1d565b9150610f5b83610b1d565b925082610f6b57610f6a610f16565b5b828204905092915050565b7f446561646c696e65206973206e6f74206f766572000000000000000000000000600082015250565b6000610fac601483610ca2565b9150610fb782610f76565b602082019050919050565b60006020820190508181036000830152610fdb81610f9f565b905091905056fea264697066735822122052703d5274a6cd5d6f53c82a0f78698d306ae3c97e21ddc80814cc3d51b137e564736f6c63430008140033",
    "linkReferences": {},
    "deployedLinkReferences": {}
}